{
  "contractName": "IPFSDrive",
  "abi": [
    {
      "inputs": [
        {
          "internalType": "string",
          "name": "_hash",
          "type": "string"
        },
        {
          "internalType": "string",
          "name": "_filename",
          "type": "string"
        },
        {
          "internalType": "string",
          "name": "_filetype",
          "type": "string"
        },
        {
          "internalType": "uint256",
          "name": "_date",
          "type": "uint256"
        }
      ],
      "name": "add",
      "outputs": [],
      "stateMutability": "nonpayable",
      "type": "function"
    },
    {
      "inputs": [
        {
          "internalType": "uint256",
          "name": "_index",
          "type": "uint256"
        }
      ],
      "name": "getFile",
      "outputs": [
        {
          "internalType": "string",
          "name": "",
          "type": "string"
        },
        {
          "internalType": "string",
          "name": "",
          "type": "string"
        },
        {
          "internalType": "string",
          "name": "",
          "type": "string"
        },
        {
          "internalType": "uint256",
          "name": "",
          "type": "uint256"
        }
      ],
      "stateMutability": "view",
      "type": "function",
      "constant": true
    },
    {
      "inputs": [],
      "name": "getLength",
      "outputs": [
        {
          "internalType": "uint256",
          "name": "",
          "type": "uint256"
        }
      ],
      "stateMutability": "view",
      "type": "function",
      "constant": true
    }
  ],
  "bytecode": "0x608060405234801561001057600080fd5b506108d2806100206000396000f3fe608060405234801561001057600080fd5b50600436106100415760003560e01c80632bfda313146100465780633f647a9714610079578063be1c766b14610095575b600080fd5b610060600480360381019061005b9190610635565b6100b3565b60405161007094939291906106a6565b60405180910390f35b610093600480360381019061008e919061058a565b610330565b005b61009d610421565b6040516100aa9190610700565b60405180910390f35b60608060606000806000803373ffffffffffffffffffffffffffffffffffffffff1673ffffffffffffffffffffffffffffffffffffffff1681526020019081526020016000208681548110610131577f4e487b7100000000000000000000000000000000000000000000000000000000600052603260045260246000fd5b906000526020600020906004020160405180608001604052908160008201805461015a906107e4565b80601f0160208091040260200160405190810160405280929190818152602001828054610186906107e4565b80156101d35780601f106101a8576101008083540402835291602001916101d3565b820191906000526020600020905b8154815290600101906020018083116101b657829003601f168201915b505050505081526020016001820180546101ec906107e4565b80601f0160208091040260200160405190810160405280929190818152602001828054610218906107e4565b80156102655780601f1061023a57610100808354040283529160200191610265565b820191906000526020600020905b81548152906001019060200180831161024857829003601f168201915b5050505050815260200160028201805461027e906107e4565b80601f01602080910402602001604051908101604052809291908181526020018280546102aa906107e4565b80156102f75780601f106102cc576101008083540402835291602001916102f7565b820191906000526020600020905b8154815290600101906020018083116102da57829003601f168201915b50505050508152602001600382015481525050905080600001518160200151826040015183606001519450945094509450509193509193565b6000803373ffffffffffffffffffffffffffffffffffffffff1673ffffffffffffffffffffffffffffffffffffffff168152602001908152602001600020604051806080016040528086815260200185815260200184815260200183815250908060018154018082558091505060019003906000526020600020906004020160009091909190915060008201518160000190805190602001906103d492919061046a565b5060208201518160010190805190602001906103f192919061046a565b50604082015181600201908051906020019061040e92919061046a565b5060608201518160030155505050505050565b60008060003373ffffffffffffffffffffffffffffffffffffffff1673ffffffffffffffffffffffffffffffffffffffff16815260200190815260200160002080549050905090565b828054610476906107e4565b90600052602060002090601f01602090048101928261049857600085556104df565b82601f106104b157805160ff19168380011785556104df565b828001600101855582156104df579182015b828111156104de5782518255916020019190600101906104c3565b5b5090506104ec91906104f0565b5090565b5b808211156105095760008160009055506001016104f1565b5090565b600061052061051b8461074c565b61071b565b90508281526020810184848401111561053857600080fd5b6105438482856107a2565b509392505050565b600082601f83011261055c57600080fd5b813561056c84826020860161050d565b91505092915050565b60008135905061058481610885565b92915050565b600080600080608085870312156105a057600080fd5b600085013567ffffffffffffffff8111156105ba57600080fd5b6105c68782880161054b565b945050602085013567ffffffffffffffff8111156105e357600080fd5b6105ef8782880161054b565b935050604085013567ffffffffffffffff81111561060c57600080fd5b6106188782880161054b565b925050606061062987828801610575565b91505092959194509250565b60006020828403121561064757600080fd5b600061065584828501610575565b91505092915050565b60006106698261077c565b6106738185610787565b93506106838185602086016107b1565b61068c81610874565b840191505092915050565b6106a081610798565b82525050565b600060808201905081810360008301526106c0818761065e565b905081810360208301526106d4818661065e565b905081810360408301526106e8818561065e565b90506106f76060830184610697565b95945050505050565b60006020820190506107156000830184610697565b92915050565b6000604051905081810181811067ffffffffffffffff8211171561074257610741610845565b5b8060405250919050565b600067ffffffffffffffff82111561076757610766610845565b5b601f19601f8301169050602081019050919050565b600081519050919050565b600082825260208201905092915050565b6000819050919050565b82818337600083830152505050565b60005b838110156107cf5780820151818401526020810190506107b4565b838111156107de576000848401525b50505050565b600060028204905060018216806107fc57607f821691505b602082108114156108105761080f610816565b5b50919050565b7f4e487b7100000000000000000000000000000000000000000000000000000000600052602260045260246000fd5b7f4e487b7100000000000000000000000000000000000000000000000000000000600052604160045260246000fd5b6000601f19601f8301169050919050565b61088e81610798565b811461089957600080fd5b5056fea2646970667358221220239084a1a5c82ec8b6411fc2a3f5666a4b3f625aefb6ebb4d192b7e0f8e35e5264736f6c63430008000033",
  "immutableReferences": {},
  "source": "// SPDX-License-Identifier: MIT\npragma solidity >=0.4.21 <8.10.0;\n\ncontract IPFSDrive {\n    struct File {\n        string hash;\n        string filename;\n        string filetype;\n        uint256 date;\n    }\n\n    mapping(address => File[]) files;\n\n    function add(\n        string memory _hash,\n        string memory _filename,\n        string memory _filetype,\n        uint256 _date\n    ) public {\n        files[msg.sender].push(File(_hash, _filename, _filetype, _date));\n    }\n\n    function getFile(uint256 _index)\n        public\n        view\n        returns (\n            // File\n            string memory,\n            string memory,\n            string memory,\n            uint256\n        )\n    {\n        File memory file = files[msg.sender][_index];\n        return (file.hash, file.filename, file.filetype, file.date);\n    }\n\n    function getLength() public view returns (uint256) {\n        return files[msg.sender].length;\n    }\n}\n",
  "sourcePath": "/Users/shaula/Library/Mobile Documents/com~apple~CloudDocs/repos/dapp-ipfs-drive/contracts/IPFSDrive.sol",
  "compiler": {
    "name": "solc",
    "version": "0.8.0+commit.c7dfd78e.Emscripten.clang"
  },
  "schemaVersion": "3.4.3",
  "updatedAt": "2022-02-03T22:57:36.640Z",
  "networkType": "ethereum",
  "devdoc": {
    "kind": "dev",
    "methods": {},
    "version": 1
  },
  "userdoc": {
    "kind": "user",
    "methods": {},
    "version": 1
  }
}